:100000000C9437030C947E030C947E030C947E03B3
:100010000C947E030C947E030C947E030C947E035C
:100020000C947E030C947E030C9498220C9454221E
:100030000C940A2C0C947E030C947E030C947E0387
:100040000C947E030C947E030C947E030C947E032C
:100050000C947E030C94E62B0C947E030C947E038C
:100060000C947E030C947E030C947E030C947E030C
:100070000C947E030C947E030C947E030C947E03FC
:100080000C947E030C947E030C947E030C947E03EC
:100090000C947E030C947E030C947E030C947E03DC
:1000A0000C947E030C947E030C947E0305010902DC
:1000B000A10185020901A1000509190129081500FE
:1000C0002501950875018102050109300931158165
:1000D000257F95027508810609381581257F9501D0
:1000E00075088106050C0A38021581257F95017572
:1000F000088106C0C005010980A101850319012AF4
:10010000B700150126B700950175108100C0050CD8
:100110000901A101850419012AA002150126A002E6
:10012000950175108100C005010906A1018505052D
:100130000719E029E71500250195087501810205D9
:1001400007190029EF1500250195F07501810205B9
:10015000081901290595057501910295017503910D
:1001600001C00660FF0961A1010962150026FF00B8
:100170009520750881020963150026FF00952075FA
:10018000089102C005010906A101050719E029E748
:1001900015002501950875018102950175088101F9
:1001A0000507190029FF150026FF0095067508812F
:1001B000000508190129059505750191029501753C
:1001C000039101C0000101010101010101010202CD
:1001D00002020202020202030303030303030304F5
:1001E00004040404040405050505050606060606C0
:1001F000070707070708080808090909090A0A0A7A
:100200000B0B0B0C0C0C0D0D0D0E0E0E0F0F0F101B
:1002100010111111121213131414151516161717A5
:10022000181819191A1A1B1B1C1D1D1E1E1F202011
:10023000212222232424252626272829292A2B2C5B
:100240002D2D2E2F30313232333435363738393A7E
:100250003B3C3D3E3F404142434445464748494A76
:100260004C4D4E4F50515354555658595A5B5D5E44
:100270005F616264656668696B6C6D6F70727375DF
:1002800077787A7B7D7E8082838587888A8C8E8F43
:1002900091939596989A9C9EA0A2A3A5A7A9ABAD71
:1002A000AFB1B3B5B7BABCBEC0C2C4C6C9CBCDCF5F
:1002B000D1D4D6D8DBDDDFE2E4E7E9EBEEF0F3F50D
:1002C000F8FAFDFF29001E001F0020002100220077
:1002D000230024002500260027002D002E002A00E0
:1002E00035002B0014001A000800150017001C0030
:1002F00018000C00120013002F00300031004C00D9
:10030000390004001600070009000A000B000D0068
:100310000E000F0033003400280000004B00E10005
:100320001D001B000600190005001100100036001A
:1003300037003800E100000052004E00E000E3000A
:10034000E200000000002C00000000000000E200BD
:100350000151E000500051004F0001003A003B0005
:100360003C003D003E003F00400041004200430091
:10037000440045000100005C010001000100010093
:100380000100010001000100010001000100010065
:100390000100C45CC35C0100010001000100010018
:1003A0000100010001000100010001000100C25C28
:1003B0000000C55C01000100010001000100010016
:1003C00001000100010001000100C75C0000C95CE0
:1003D000C65C0100010001000000000001000000F7
:1003E0000000000001000100C85CCC5CCA5CCB5C72
:1003F00001000100010001000100010001000100F5
:1004000001000100010001000100010001000100E4
:1004100001000100010001000100010001000100D4
:1004200001000100010001000100010001000100C4
:1004300001000100010001000100010001000100B4
:1004400001000100010000000100010001000100A5
:100450000100010001000100010001000100010094
:100460000100000001000100010001000100000086
:100470000000010000000000000001000100010078
:100480000100010001000100010001000100010064
:100490000100010001000100010001000100010054
:1004A0000100010001000100010001000100010044
:1004B0000100010001000100010001000100010034
:1004C0000100010001000100010001000100010024
:1004D0000100010001000100010001000000010015
:1004E0000100010001000100010001000100010004
:1004F00001000100010001000000010001000100F5
:1005000001000100000000000100000000000000E8
:1005100001000100010001000100010000000000D5
:1005200000000000000000000000000000000000CB
:1005300000000000000000000000000000000000BB
:100540007E0F00D4FFFFFFC700000078000000000E
:10055000000000002A2B280000000000000000001E
:100560000000000000000029000000002C1E3420C4
:10057000212224342627252E362D3738271E1F20EA
:100580002122232425263333362E37381F0405062F
:100590000708090A0B0C0D0E0F1011121314151673
:1005A0001718191A1B1C1D2F3130232D3504050671
:1005B0000708090A0B0C0D0E0F1011121314151653
:1005C0001718191A1B1C1D2F3130354C09025B00FE
:1005D000030100A0FA090400000103010100092140
:1005E000110100012240000705810308000A0904E7
:1005F0000100020300000009211101000122220074
:1006000007058203200001070503032000010904F8
:100610000200010300000009211101000122B600BF
:100620000705840320000A12011001000000081DC4
:10063000093323010001020001120346006C00612E
:10064000006D0065005F003600380000001A03737B
:10065000006900660075005F007800690061006F46
:1006600000790075006E00000004030904001124E5
:100670001FBECFEFDAE0DEBFCDBF04B603FE27C05A
:100680008091C0049091C104A091C204B091C304B0
:100690008730904BA740B04BD1F41092C004109219
:1006A000C1041092C2041092C30414BE84B7877FA1
:1006B00084BF0FB6F894A8958091600088618093FC
:1006C0006000109260000FBEE0E0F8E3099524E0BE
:1006D000ACE8B2E001C01D92A03CB207E1F712E025
:1006E000A0E0B1E0E4EEFBE502C005900D92AC386D
:1006F000B107D9F70E946F230C94802D0C94000051
:10070000E8EDF0E080818E7F80831092E20010920D
:10071000DA001092E100A0EEB0E08C9181608C9341
:1007200080818F77808319BCA7EDB0E08C918E7F9C
:100730008C9380818F7E808310925804089520913D
:10074000E4003091E50095E6A9012091EC00822FAC
:10075000817020FF06C08091E80080FF06C080E025
:1007600008952091E80022FD1AC080917D0488231D
:1007700089F0853089F08091EB0085FD0FC02091D4
:10078000E4003091E50042175307F9F29150E1F689
:1007900084E0089582E0089583E0089581E008955B
:1007A000EF92FF920F931F93CF937C018B010E94D6
:1007B0009F03C82F811117C08091E80085FD0BC0F1
:1007C0008091E8008E778093E8000E949F03882341
:1007D00099F3C82F08C0F70181917F018093F10040
:1007E0000150110949F78C2FCF911F910F91FF9064
:1007F000EF90089580917F0487FF13C08091E800F7
:1008000082FF06C08091E8008B778093E80004C0E7
:1008100080917D048111F2CF089580917D04882319
:10082000D9F38091E80080FFF8CF8091E8008E77BF
:10083000ECCF982F9093E900242F762F50E0891762
:1008400031F07091EC002091ED005091F00021FD0D
:1008500007C09F5F973071F78093E90081E00895AA
:100860003091EB003E7F3093EB003091ED003D7F07
:100870003093ED003091EB0031603093EB007093DA
:10088000EC002093ED005093F0002091EE0027FD46
:10089000E0CF80E00895CF92DF92EF92FF920F9326
:1008A0001F93CF93DF93C8EDD0E088818F7E88833C
:1008B000E7EDF0E080818160808384E082BF81E0A9
:1008C0008093580488818E7F888302EE10E0F801BF
:1008D00010821092DA0081EEC82ED12CF60110821F
:1008E00088818F77888388818068888388818F7DDD
:1008F000888319BC10927D0410927E0410927C04AF
:1009000010927B0490EEE92EF12CF70180818B7F11
:10091000808388818160888342E060E080E00E947B
:100920001904F60180818E7F8083F80180818160C7
:100930008083808188608083F70180818E7F8083BF
:10094000888180618883DF91CF911F910F91FF9003
:10095000EF90DF90CF900895FC01809185049091F5
:10096000860486179707A0F06115710529F4909108
:10097000E8009E779093E80090E06115710551F4CE
:10098000911108C08091E80082FF34C080E0089592
:10099000BC01F2CF80917D048823C1F18530C1F183
:1009A0008091E80083FD30C08091E80082FDEACFAD
:1009B0008091E80080FFE1CF8091F3002091F20068
:1009C000382F6115710519F02830310558F091E084
:1009D0002830310509F090E02091E8002E7720932F
:1009E000E800CBCF81918093F100615071092F5FB6
:1009F0003F4FE7CF80917D04882341F0853041F05F
:100A00008091E80083FFBECF81E0089582E00895E1
:100A100083E00895EF92FF920F939701201B310915
:100A20002F3F310519F010F02FEF30E02095382FCF
:100A3000320F08F43FEF832F0F91FF90EF9008954E
:100A4000EF92FF920F939701201B31092F3F310541
:100A500019F010F02FEF30E0322F3095482F430F70
:100A600008F44FEF842F620F0F91FF90EF900895DD
:100A7000EF92FF920F93972F093438F4B701601B60
:100A800071096F3F710519F010F06FEF70E0485F6A
:100A90005F4F4131510540F0A901485F5F4F41313F
:100AA000510510F06FEF70E06095482F460F08F485
:100AB0004FEF842F37FF02C02D5F3F4F35952795AD
:100AC000359527956091B804620F792F0F91FF90AB
:100AD000EF900895EF92FF920F931F930E0D1F2D2D
:100AE000111DF90137FF03C0F195E195F10924E0EB
:100AF000EE0FFF1F2A95E1F7EF3FF10519F014F013
:100B0000EFEFF0E09A0157FF03C0319521953109CD
:100B100094E0220F331F9A95E1F72E173F070CF44C
:100B2000F901E00FF11FEF3FF10519F010F0EFEFC1
:100B3000F0E0E095282F3E2F230F08F42FEF822FAF
:100B40001F910F91FF90EF900895EF92FF920F93F6
:100B5000970195E0099F200D311D11242F3F31058C
:100B600019F010F02FEF30E02095382F320F08F4F5
:100B70003FEF832F0F91FF90EF90089522E8241B01
:100B800008F420E0620F08954095282F429F412DE0
:100B90001124842F08950F931F9310E0F801EE0F96
:100BA000FF1FE154FE4F9081905797FD9195000FE4
:100BB000111FF801E054FE4F00810052110B200379
:100BC000F001219FF00D112408E310E0091B110929
:100BD00097FD139540039001419F300D1124E20FC2
:100BE000F31F9F01220F331F2E0F3F1F37FF02C03D
:100BF00021583F4F220F232F221F330B620F1F91CB
:100C00000F9108950F931F93522F10E0F801EE0FEC
:100C1000FF1FE054FE4FA081A052BB0B9D01520369
:100C2000F001539FF00D1124000F111FD801A154A2
:100C3000BE4F0C910057110B40039001419F300DA6
:100C400011242E0F3F1F37FF02C0215C3F4F96E05B
:100C5000359527959A95E1F7620F1F910F910895A9
:100C60000F931F93522F10E0F801EE0FFF1FE05477
:100C7000FE4FA081A052BB0B9D015203F001539F78
:100C8000F00D1124000F111FD801A154BE4F0C917B
:100C90000057110B40039001419F300D11242E0F7E
:100CA0003F1F37FF02C021583F4F220F232F221F23
:100CB000330B620F1F910F910895EF920F93972FAF
:100CC00023E0029FB0011124759567956E0D792F71
:100CD0000F91EF900895322F50E0FA01EE0FFF1FB1
:100CE000E054FE4F9081905297FD9195440F551F0F
:100CF000FA01E154FE4F2081231B330B290F311DD4
:100D000097FD3A95620F0895E42FF0E0EE0FFF1F74
:100D1000E054FE4F6081621B0895E42FF0E0EE0F77
:100D2000FF1FE154FE4F6081621B0895622F0895FA
:100D3000E42FF0E0EE0FFF1FE154FE4F408134EE50
:100D4000439F412D1124E82FF0E050E0445E5F4FB7
:100D5000DA01A21BB1099D01B7FF03C031952195AE
:100D6000310993E0220F331F9A95E1F7AF01421B3F
:100D7000530B9A0157FD20E0582F259F212D112458
:100D8000822F0895E42FF0E0EE0FFF1FE154FE4F95
:100D9000408134EE439F412D1124E72FF0E050E0D5
:100DA000445E5F4FDA01A21BB1099D01B7FF03C08A
:100DB00031952195310993E0220F331F9A95E1F780
:100DC000AF01421B530B9A0157FD20E0279F212DB5
:100DD0001124722F089580E0089580915A04089597
:100DE0009C014FB7F8948091540490915504A091C0
:100DF0005604B09157044FBF821B930B08952FB731
:100E0000F8948091540490915504A0915604B091A7
:100E100057042FBF08958091F10381111092F103BF
:100E200008958091F0039091EF03892B9091EE0348
:100E3000892B80938E029091F1039923A1F0892B45
:100E400080938E0280911001882341F180910004EB
:100E500087FF24C08EE1E0E9F2E090E0815000F5E8
:100E600091110E940B07E0910204F0910304309766
:100E7000E1F080911001882359F08091000487FFF0
:100E800007C080918E0280938F0285E080938E024E
:100E90000280F381E02D8EE892E0099486E0DBCFBA
:100EA00021912223D9F29F5FD9CF0895909110010B
:100EB0009923D1F09091000497FF16C0E82FE69592
:100EC000E695E695EE31E0F4F0E0E257FD4F282F8D
:100ED000277081E090E001C0880F2A95EAF780959D
:100EE0009281892382830895E0E9F2E09191891348
:100EF00003C0DF0111971C9292E0E639F907B1F7C0
:100F00000895909110019923C1F09091000497FFEA
:100F100014C0E82FE695E695E695EE31F8F4F0E09A
:100F2000E257FD4F877021E030E001C0220F8A9523
:100F3000EAF78281822B82830895A0E9B2E0EFEF85
:100F400090E02D91821751F0EF3F19F4211101C06B
:100F5000E92F9F5F9630A9F7EF3F09F408950E2E11
:100F6000000CFF0BE257FD4FE6CF2FE0929F800D64
:100F70001124982F977086958695869525E0829FF7
:100F8000F0011124E554FC4F50E040E080E0219155
:100F900030E0092E02C0369527950A94E2F72170B9
:100FA0003327042E01C0220F0A94EAF7822B4F5FE9
:100FB0005F4F4530510559F708952FE0929F800DFE
:100FC0001124982F977041E001C0440F9A95EAF7D9
:100FD00086958695869595E0899FF0011124E554C4
:100FE000FC4F90E080E070E05191DF0111979B0190
:100FF000082E02C0369527950A94E2F721702195B4
:101000002527242325272C9301968530910561F708
:1010100008958091BA0390918903981301C00895AF
:101020008F5F8770FACF882341F080959091F0030D
:1010300089238093F0030C9411070895882339F0D5
:101040009091F003982B9093F0030C94110708955E
:1010500020917F03309180032817390771F0909316
:10106000800380937F03E0910204F09103043097A2
:1010700021F00084F185E02D0994089520917D03ED
:1010800030917E032817390771F090937E03809387
:101090007D03E0910204F0910304309721F0068073
:1010A000F781E02D09940895E0910204F091030482
:1010B000309721F00190F081E02D099480E00895AF
:1010C000FA01811101C0FB010994E1EBF2E0818397
:1010D00060834283339693E0ED37F907C1F70895B3
:1010E000FC01EE0FFF1FE80FF91FEF54FD4F618366
:1010F0004083228308950C9465080C947008FC01C9
:101100009B01009729F480E077FF2BC080E80895C9
:10111000AC0197FF04C044275527481B590BB90160
:10112000640F751F37FD10C0241B350BC901A5E0E6
:10113000880F991FAA95E1F70E94452C80E2861B33
:10114000F7FF0FC081950895CB0165E0880F991FC7
:101150006A95E1F7BA01621B730B0E94452C80E689
:10116000EECF0895EF920F93CF93DF93D72FC82F31
:10117000C9010E19BA010E947F08602F681B7D2FDC
:101180008C2FDF91CF910F91EF9008950F93CF9314
:10119000DF93D72FC82FC901BA010E947F08682F9B
:1011A000600F7D2F8C2FDF91CF910F910895EF92DB
:1011B0000F931F93CF93DF93D62FC72F182FC901FB
:1011C0000E19010FBA010E947F08081B202F219FD2
:1011D000212D1124822F6D2F7C2FDF91CF911F9114
:1011E0000F91EF900895EF920F931F93CF93DF939A
:1011F000D62F172FC82FC9010E19070FBA010E9449
:101200007F08702F781B719F712D11246D2F8C2FEB
:10121000DF91CF911F910F91EF9008950F931F933E
:10122000CF93DF93D62FC72F182FC901212F201B53
:10123000022FBA010E947F08982F990F990F891BDE
:10124000800F282F219F212D1124822F6D2F7C2F7D
:10125000DF91CF911F910F9108950F931F93CF931B
:10126000DF93D62F172FC82FC901272F201B022F3E
:10127000BA010E947F08982F990F990F782F791B38
:10128000700F719F712D11246D2F8C2FDF91CF91D5
:101290001F910F910895E82F86FDE0952E2F2F7056
:1012A00086FD2F5FE695E695E695E670F0E0E85E50
:1012B000FE4F9181929F902D212D112492959F7028
:1012C0002295207F922B2081920F87FD919580E8B7
:1012D000890F0895AC018230910508F408959FEFBD
:1012E000413E8EE1580740F49A0195E036952795E6
:1012F0009A95E1F798E0920F61E0E62FE90FFF275A
:10130000FF1F9F0135952795822F229FF001239F74
:10131000F00DF00D11244E175F0738F49FEF920F78
:10132000961758F78FEF860F08952F3FE9F361E086
:10133000620FF6CF0F93CF93DF93D72FC82F47FDC0
:10134000419588E390E0841B910947FD9395889F20
:10135000B001899F700D700D1124229FC001239F41
:10136000900D900D1124860F971F0E946A09982FE7
:10137000990F890F682F600F7D2F8C2FDF91CF91F0
:101380000F91089530E020E0869F212D969F200D3B
:10139000311D1124C9010895AF92BF92CF92DF92FF
:1013A000FF920F931F93CF93DF93362F472FE82F92
:1013B000F0E0EC53FE4F71110FC0E4918E2F2E2FF1
:1013C0006E2F722FDF91CF911F910F91FF90DF90C1
:1013D000CF90BF90AF900895C72FD0E02491F22E08
:1013E000022F10E056E0659FC0011124EFEFF0E0FE
:1013F000BF010E94312C832F90E0880F991F35E5A3
:10140000369FD001379FB00D11248A1B9B0B982F5C
:10141000990F980F6F01CC1ADD0AC09ED001C19EB2
:10142000B00DD09EB00D11248B2F499FA001112427
:10143000452F55276F01C41AD50AC09EA001C19E31
:10144000500DD09E500D11245F01A91AB108AC9E19
:101450006001AD9ED00CBC9ED00C1124CD2CDD249F
:10146000EC19FD09E09FE001E19FD00DF09FD00D48
:101470001124ED2F62307105A1F050F46115710552
:1014800009F49ECF6130710581F0EB2F852F98CF45
:101490006430710569F080F06630710509F490CF11
:1014A000F4CFE22F2B2F8D2F8BCFE22F252F88CF3C
:1014B000EB2F822F2D2F84CF2B2F8F2DE52F80CF39
:1014C0007F928F929F92AF92BF92CF92DF92EF92D4
:1014D000FF920F931F93CF93DF935C01C091110193
:1014E0008EE0C89FC02D11241EE01C0FF12E153474
:1014F00010F034E4F32E6091BB0466958091B00443
:101500009091B1040E94C209782ED0E0CF1590F0DE
:1015100081E0143408F080E0DF91CF911F910F91AA
:10152000FF90EF90DF90CF90BF90AF909F908F9003
:101530007F900895FE01E95BFD4F8081909112013B
:101540008923C9F1CE01880F991F8C589E4FFC0149
:10155000E55BFF4F2081422F4057550B6A01845BAA
:101560009F4FFC018081282F2052330B4901449F5B
:101570009001459F300D300D1124889CC001899C3D
:10158000900D900D1124820F931F0E946A09082F5D
:101590006091B8047091B9048091BA04E72C940169
:1015A000A601F50109950E94CC09462F282F672F27
:1015B000CE010E947D082196A9CFCF92DF92EF92B3
:1015C000FF920F931F93CF93DF937C01C091110182
:1015D0008EE0C89FC02D11241EE01C0FD12E1534A3
:1015E00010F034E4D32E6091BB0466958091B00472
:1015F0009091B1040E94C209C82ED0E0CD1568F0C8
:1016000081E0143408F080E0DF91CF911F910F91B9
:10161000FF90EF90DF90CF900895FE01E95BFD4FC2
:10162000808190911201892311F1CE01880F991FB9
:101630008C589E4FFC01E45BFF4F20812052330BFE
:10164000855B9F4FFC0140814057550B6091B8046A
:101650007091B9048091BA040C2DF70109950E948C
:10166000CC09462F282F672FCE010E947D08219696
:10167000C5CFDF92EF92FF920F931F93CF93DF932B
:101680007C01C09111018EE0C89FC02D11241EE085
:101690001C0F012F153408F004E46091BB0466951B
:1016A00066958091B0049091B1040E94C209D82E31
:1016B000D0E0C01760F081E0143408F080E0DF91E2
:1016C000CF911F910F91FF90EF90DF900895FE0151
:1016D000E95BFD4F808190911201892391F0609127
:1016E000B8047091B9048091BA042D2D4C2FF701E4
:1016F00009950E94CC09462F282F672FCE010E9402
:101700007D082196D6CF9F92AF92BF92CF92DF9263
:10171000EF92FF920F931F93CF93DF936C01C091D1
:1017200011018EE0C89FC02D11241EE01C0FB12EA8
:10173000153410F034E4B32E6091BB0466956695C1
:101740008091B0049091B1040E94C209F82E80E407
:101750008F0D0E944B0990E8A92EA80E8F2D0E9494
:101760004B0920E8922E980ED0E0CB1580F081E056
:10177000143408F080E0DF91CF911F910F91FF901A
:10178000EF90DF90CF90BF90AF909F900895FE01B3
:10179000E95BFD4F8081909112018923A1F0609156
:1017A000B8047091B9048091BA04EF2C0C2F292D44
:1017B0004A2DF60109950E94CC09462F282F672F44
:1017C000CE010E947D082196D0CFCF92DF92EF927A
:1017D000FF920F931F93CF93DF937C01C091110170
:1017E0008EE0C89FC02D11242EE0D22EDC0ECD2C11
:1017F00084E48D1510F494E4C92E2091BB0430E0EC
:1018000050E040E06FEF7FEF80E090E00E941D2D00
:101810008901D0E02C2FCC1570F081E0F3E4FD15A8
:1018200008F480E0DF91CF911F910F91FF90EF902E
:10183000DF90CF900895FE01E95BFD4F808190918C
:1018400012018923F1F0409187044150042E000CCD
:10185000550B47FF18C0C8016091BB040E94C20924
:10186000AC016091B8047091B9048091BA04F70199
:1018700009950E94CC09462F282F672FCE010E9480
:101880007D082196C7CFFA01E957FB4F8189821362
:101890000AC0FA01EE0FFF1FE957FB4F818D928DB1
:1018A00080179107C8F241505109D3CF2F923F9230
:1018B0005F926F927F928F929F92AF92BF92CF92E0
:1018C000DF92EF92FF920F931F93CF93DF93CDB7E9
:1018D000DEB72A970FB6F894DEBF0FBECDBF8B835D
:1018E0007E836D83209111018EE0289F802D11242D
:1018F0008F83825F89838A83853410F034E43A834E
:10190000809187048C83FF81EF2FF0E0FA87E987CD
:10191000CF01880F991F9C0121543E4F69013B81E3
:10192000832F90E0FC013196F887EF838A819985B7
:101930009817E8F081E0E981E43408F080E02A9625
:101940000FB6F894DEBF0FBECDBFDF91CF911F91D0
:101950000F91FF90EF90DF90CF90BF90AF909F904E
:101960008F907F906F905F903F902F900895E985C2
:10197000FA85E95BFD4F8081909112018923F1F096
:101980002090B8043090B9042F81388529573B4FF7
:1019900039015B8010E0FC815F16D0F02091BA0421
:1019A000129F112D1124B101812F0E94CC09462FC5
:1019B000282F672F89859A850E947D0829853A8579
:1019C0002F5F3F4F3A87298732E0C30ED11CAECF3D
:1019D000F30181913F01F601A080A81ABB08818024
:1019E000F3018781881A9908AA9C9001AB9C300D5D
:1019F000300D1124889CC001899C900D900D1124FC
:101A0000820F931F0E946A09082FF301EE0FFF1F38
:101A1000E758F4406091BB04858996890E94C20909
:101A20007C019401A501B101812FED81FE81099511
:101A30001B015394182FAFCF0E94FF069C01909179
:101A40003A0480913B04982B21F030933704209383
:101A5000360490913C0480913D04982B21F0309302
:101A6000340420933304E0910204F091030430978E
:101A700049F082E0809338040480F581E02D88E30A
:101A800094E00994089590E080E00E943E0890E080
:101A900080E00E9428081092EF031092EE030E944B
:101AA000110786E0E8E3F4E0DF011D928A95E9F78B
:101AB0001092350410923204109282030C941C0D83
:101AC0006093BC047093BD048093BE049093BF04E4
:101AD0000C94430D0F931F936091BC047091BD044F
:101AE0008091BE049091BF048B019C010670112768
:101AF00022273327063011052105310529F46860B6
:101B00001F910F910C94600D677FFACF0F931F9375
:101B100041E050E060E070E004C0440F551F661FD4
:101B2000771F8A95D2F7CB01BA01609570958095A1
:101B300090950091BC041091BD042091BE04309199
:101B4000BF0460237123822393231F910F910C9470
:101B5000600D9091ED03809589238093ED03282FEC
:101B6000277071F4282F082E000C330B92171306E0
:101B700039F08595859585950E94860D1092ED0327
:101B800008950F931F9341E050E060E070E004C0BF
:101B9000440F551F661F771F8A95D2F78091BC04AA
:101BA0009091BD04A091BE04B091BF048A019B0135
:101BB000082B192B2A2B3B2BC901B8011F910F9120
:101BC0000C94600D6093F2037093F3038093F4031D
:101BD0009093F5030C94430D40913A04803F59F4DF
:101BE00080913B0487FF0DC010923B0441110BC054
:101BF0001092350408C0813F81F480913B0418168F
:101C00009CF3442381F080913C0490913D04892B06
:101C100009F05AC0109232040895823F49F447FFF8
:101C2000F0CF10923A0480913B048111ECCFE0CFC9
:101C3000833F19F41416ACF3E4CF90913C04893F30
:101C400029F41916F4F610923C04DBCF8A3F19F4FC
:101C500097FFD7CFF8CF90913D048B3F29F497FFA2
:101C6000D0CF10923D04CDCF8C3F19F41916CCF390
:101C7000C8CF9CE0980F953090F4845F990B21E0D9
:101C800030E0B90102C0660F771F8A95E2F7CB01F9
:101C9000809590913904892380933904B2CF8D3F88
:101CA00031F4809182038E7F80938203AACF8E3F8E
:101CB00021F4809182038D7FF7CF8F3F09F0A1CF70
:101CC000809182038B7FF0CF0895882309F459C057
:101CD000823871F40E94540881FF53C089E30E9446
:101CE00081070E94110789E30E9456070C9411078F
:101CF000833859F40E94540880FF43C083E50E9452
:101D000081070E94110783E5EFCF843859F40E94C0
:101D1000540882FF36C087E40E9481070E941107A1
:101D200087E4E2CF9CEF980F913AF0F290E2980F9F
:101D3000983088F4877021E030E0A90102C0440F98
:101D4000551F8A95E2F7CA0180959091F003892387
:101D50008093F003CBCF9BE5980F933020F490E075
:101D600080E00C943E0898E5980F973120F490E0BD
:101D700080E00C942808803F20F00E94EC0D0C9429
:101D80001C0D08958091820380FD16C081FD16C050
:101D900082FD16C0809132048823A1F0883280F43D
:101DA00028E0829FC001112468E270E00E94452C67
:101DB000862F672B39F0089582E0089584E0089516
:101DC00088E0089581E008958091820380FD14C029
:101DD00081FD14C082FD16C080913504882381F0F6
:101DE000843180F422E3829FC001112464E170E019
:101DF0000E94452C862F08958CE0089589E108956E
:101E000085E0089582E30895803F31F40E94E40E56
:101E1000819580933B040895813F19F40E94E40E5C
:101E2000F8CF823F31F40E94E40E819580933A040A
:101E30000895833F19F40E94E40EF8CF893F29F4F6
:101E40000E94C20E80933C0408958A3F21F40E94B0
:101E5000C20E8195F7CF8B3F31F40E94C20E81955F
:101E600080933D0408958C3F19F40E94C20EF8CF70
:101E70009CE0980F953070F4845F990B21E030E07E
:101E800001C0220F8A95EAF780913904822B809352
:101E9000390408958D3F31F48091820381608093ED
:101EA000820308958E3F21F4809182038260F7CFF0
:101EB0008F3FB9F7809182038460F1CFF894E82FC7
:101EC000E295EF70F0E031A1282F2F7081E090E0D3
:101ED00001C0880F2A95EAF7982F9095932391A334
:101EE00092A1892B82A3789408959091000492FF87
:101EF00006C0282F28712830F9F4877F846093FF6B
:101F000006C0282F28712831F1F4877E8461209142
:101F1000010420FF06C0382F38713830D9F4877F8C
:101F2000816021FF06C0282F28712831D1F4877ED7
:101F3000816194FD877E0895282F24712430F9F65D
:101F40008B7F8860DCCF282F2471243101F78B7EB2
:101F50008861DDCF382F3171313019F78E7F88607D
:101F6000E0CF282F2171213121F78E7E8861E1CFCA
:101F7000CF9384E090E00E94DB2CC82F81E290E0B8
:101F80000E94DB2C982F8C2FCF9108950F931F93D5
:101F9000CF93DF93C42FD0E0CC0FDD1F2EE1629FE3
:101FA000C00DD11D112436E9839FC00DD11D112410
:101FB000CE0186960E94DB2C082F10E0102F002700
:101FC000CE0187960E94DB2C9801282BC901DF9156
:101FD000CF911F910F910895462F843038F47530BA
:101FE00028F46F3018F4672F0C94C60F90E080E04F
:101FF0000895CF93DF930E94EC0FEC018238910596
:10200000A9F1D8F58133910509F496C048F58932D4
:10201000910509F48AC08A9709F495C0C11521E594
:10202000D20708F0BCC0C11530E5D30708F014C1D1
:10203000C83ED10508F09CC0C03ED10560F5C83A45
:10204000D10508F087C0C53AD10508F0FDC0C13000
:10205000D10509F12097F9F0C430D105E0F440C072
:102060008533910509F45AC0C997C1F680910004DF
:10207000837089F0C0EED0E00EC0833E910599F1E7
:1020800070F4803E910501F1823E910539F6809110
:10209000000482FD21C0CE01DF91CF910895863EDC
:1020A000910561F1873E910571F1843E910509F03A
:1020B000B5CF8091010481FFEECF80910004C7EE7F
:1020C000D0E084FD0DC0E7CF8091000480FD12C1F7
:1020D0009091010490FFDFCFC3EED0E084FFDBCF0F
:1020E000D0E0C0E0D8CF8091000482FD06C190917D
:1020F000010490FDBFCF84FFCECFF2CF80910004CA
:1021000083FDDDCFC8CF8091000483FDF9C090919D
:10211000010491FFF0CFC4EED0E0BDCF8091000468
:1021200085FFB9CFC9E2D0E0B6CF8091000485FF2A
:10213000B2CFC5E3D0E0AFCF8091000486FFABCF34
:10214000CAE2D0E0A8CF8091000486FFA4CFC1E30B
:10215000D0E0A1CFCF3BD10518F6C85AD0E0CC0FC4
:10216000DD1FCD5DDE4F0990D881C02DD46493CFA3
:10217000C11540E2D40758F4C11581E0D80708F032
:102180008ACFC03FD10508F4ABCFD06584CFC1154D
:1021900090E4D90708F4A4CFDF70D06A7CCFC115D2
:1021A00025E5D20700F5C11534E5D30708F08AC04C
:1021B000C11543E5D40708F071C0C11582E5D80701
:1021C00008F467C0CE018370992721E030E002C097
:1021D000220F331F8A95E2F7C695C69580E2C89F05
:1021E000E001112452C0C11599E5D907A8F4C11521
:1021F00028E5D20708F06BC0C11536E5D30708F013
:102200006FCF8C2F0E94750FC82FD0E0DC2FCC270A
:10221000CC27DF71D0623FCFC1154AE5D40708F45F
:102220005BC0CE0190568115904208F059CF8D2F9A
:102230008F710E94750F90E0982F882788279F71D3
:102240009C012C2BE901E6CFC55AD0E0C05EDE4FE1
:10225000C881D0E0D0641FCFCE01E4E09695879589
:10226000EA95E1F783702C2F26952695237040E29E
:10227000249F90011124382B8C2F8370C1E0D0E073
:1022800002C0CC0FDD1F8A95E2F7C22BD32BDC688E
:1022900002CFDC2FCC27C16FD06AFDCECE01837078
:1022A000992721E030E002C0220F331F8A95E2F720
:1022B000C695C69590E2C99FE0011124C22BD32B8D
:1022C000DA68E9CEDC2FCC27C46FD06AE4CEDC2FED
:1022D000CC27C06FD06ADFCE8C2F8F700E94750F15
:1022E00034E0D695C7953A95E1F7CF709C2FEC0175
:1022F000D069D1CEC9E3D0E0CECEC2EED0E0CBCE15
:10230000C6EED0E0C8CEBF92CF92DF92EF92FF929E
:102310000F931F93CF93DF938C01C090BC04D09098
:10232000BD04E090BE04F090BF048091F203909150
:10233000F303A091F403B091F503C82AD92AEA2A3D
:10234000FB2ACFE1D0E0BC2ED701C6010C2E04C081
:10235000B695A795979587950A94D2F780FD0EC0FC
:10236000219788F7B12C8B2DDF91CF911F910F9181
:10237000FF90EF90DF90CF90BF900895B8018C2F21
:102380000E94F90F019761F3EECFCF93DF93EC0139
:102390000E948311BE01DF91CF910C94F90F0E942E
:1023A000C511292F2F7092959F7092509E3078F40E
:1023B000E92FF0E0EE57F24D0C94592C803F19F0C4
:1023C00020F4883E20F481E00895843FE1F380E02A
:1023D0000895883EC0F3813FD1F7F5CF822F8695CF
:1023E0008695869508956F927F928F929F92AF9275
:1023F000BF92CF92DF92EF92FF920F931F93CF93F2
:10240000DF9384ECC82E82E0D82E9AEDE92EF12CD1
:10241000E701C659D10936011BC0F501859094909A
:10242000692DC8010E94F92C682DC80101960E94EF
:10243000F92C82E0A80EB11C0E5F1F4FC017D10708
:1024400061F78EE1680E711C6E96CE15DF0529F0DE
:102450008E010E5111095301E0CF7E0186E9E80E8D
:10246000F11C86E9C80ED11C82E3E81683E0F80669
:1024700079F6DF91CF911F910F91FF90EF90DF9050
:10248000CF90BF90AF909F908F907F906F90089566
:10249000CF93DF93CEE7D2E060E0CE010E94F92C2B
:1024A0002196C11584E0D807B9F7DF91CF9108953F
:1024B0001F93CF93DF93EC01FC01E95BFD4F80811B
:1024C0006823A1F00E94B22C182F0E94B22C612F19
:1024D000782F8091BA040E94CC09462F282F672FAD
:1024E000CE01DF91CF911F910C947D08DF91CF91A8
:1024F0001F910895DF92EF92FF920F931F93CF9356
:10250000DF938C01FC01E95BFD4F8081682381F141
:10251000D090B904D091BA04C091B804EC2EF12C3B
:102520000E94B22C282FC7018C549F4F68E671E09F
:102530000E94452C8E199F0997FD039695958795C6
:102540009595879523706C2F289F600D11247D2D04
:102550008D2F0E94CC09462F282F672FC801DF91AD
:10256000CF911F910F91FF90EF90DF900C947D0819
:10257000DF91CF911F910F91FF90EF90DF90089521
:10258000CF93DF9300D00F92CDB7DEB790917D044B
:10259000943011F589837B836A839093E9008FEFF0
:1025A0009091E800815095FD06C095ED9A95F1F760
:1025B00000008111F5CF8091E80085FF0DC050E04B
:1025C00040E063E070E0CE0101960E94D00380916C
:1025D000E8008E778093E8000F900F900F90DF91C6
:1025E000CF910895BC0184E00C94C012BC0183E03B
:1025F0000C94C0129C0184E08093E9009FEF8091CD
:10260000E800915085FD06C085ED8A95F1F7000040
:102610009111F5CF8091E80085FF0CC050E040E0BB
:1026200066E070E0C9010E94D0038091E8008E77D7
:102630008093E8000895CF93DF93EC01809110011F
:102640008823B1F18091000487FF32C060E284E00A
:102650008093E9008FEF9091E800815095FD06C0CE
:1026600095ED9A95F1F700008111F5CF8091E80082
:1026700085FF1BC08091100170E050E040E08111A7
:1026800004C050E040E068E070E0CE010E94D0035A
:102690008091E8008E778093E80080E2FE01ABE550
:1026A000B4E001900D928A95E1F7DF91CF91089502
:1026B00068E081E0CDCF81E08093E00080E280930C
:1026C000D8001092C9008FE19EE40197F1F700C095
:1026D000000087E090EBDC018093C0049093C1047C
:1026E000A093C204B093C30488E19CE00FB6F894B1
:1026F000A895809360000FBE90936000FFCFCF93AA
:10270000C82F882309F4AEC08238C1F40E9454084F
:1027100081FDA8C089E30E9481070E9411072FEF65
:1027200081EE94E0215080409040E1F700C000002D
:1027300089E30E945607CF910C9411078338A1F4C6
:102740000E94540880FD8EC083E50E9481070E948C
:1027500011072FEF81EE94E0215080409040E1F787
:1027600000C0000083E5E5CF8438A1F40E9454083E
:1027700082FD78C087E40E9481070E9411072FEF35
:1027800081EE94E0215080409040E1F700C00000CD
:1027900087E4CFCF8CEF8C0F813A88F580911001C0
:1027A000882301F18091000487FF1CC0EC2FE6957F
:1027B000E695E695F0E0E257FD4F828190E04C2FE0
:1027C000477021E030E002C0220F331F4A95E2F744
:1027D00082239323892B79F08C2F0E9456070E9425
:1027E000110709C0E0E9F2E08191C817A9F322E0DE
:1027F000E639F207C9F78C2F0E9481079CCF80E24F
:102800008C0F883068F4C77021E030E001C0220FDF
:10281000CA95EAF78091F003822B8093F0038BCF67
:10282000EBE5EC0FE33040F4F0E0E05EFE4F80813A
:1028300090E0CF910C943E08E8E5EC0FE73150F4BE
:10284000F0E0EE0FFF1FED5DFE4F80819181CF9193
:102850000C942808C03F30F08C2F0E94040FCF91B9
:102860000C941C0DCF9108951F93CF93DF93182FD5
:10287000D0E0C0E0893311F4C0E5D0E0812F0E94A0
:102880007F13209731F4812FDF91CF911F910C940A
:10289000650E8FE99FE00197F1F700C000002197D6
:1028A000F0CF0F931F93CF93DF93C62FD42F022F18
:1028B000FC0182818823A1F06093B6040E94FF0688
:1028C0009093B5048093B404C77081E001C0880F71
:1028D000CA95EAF7DF91CF911F910F910C941E08D2
:1028E0008091B604681335C08091B4049091B5040A
:1028F0000E94F006883C910560F510E21D0FCD178F
:10290000B9F080E28C0F883040F4C77081E001C0DC
:10291000880FCA95EAF70E941308183048F481E03E
:102920009D2F977001C0880F9A95EAF70E941E08A4
:10293000802F0E943414183098F4D77081E001C0C1
:10294000880FDA95EAF7DF91CF911F910F910C94E0
:102950001308C77081E001C0880FCA95EAF7F3CF6A
:10296000DF91CF911F910F910895579A3BB13F7717
:102970002BB120684FB7F89481EB92E0FC015191A4
:10298000CF0168E02BB9000000C057FF3BB9550FDD
:10299000000000C000C000C03BB900C06A9591F7BC
:1029A000F3E08D379F0751F74FBF8FE594E0019714
:1029B000F1F700C000000895AF92BF92CF92DF926E
:1029C000EF92FF920F931F93CF93DF9301E511E0F6
:1029D000C6EFD3E0C12CD12CEE24E394F12CF80106
:1029E00081918F01F894E82FE295EF70F0E021A13A
:1029F0008F70A70102C0440F551F8A95E2F7CA01E4
:102A0000922F982B91A392A18095892382A37894E9
:102A100000C0E6E5F1E030E020E0B12CA12C4191CE
:102A2000A42FA295AF70B0E090968C9190E04F707B
:102A300002C0959587954A95E2F780FD67C0C7016A
:102A4000022E02C0880F991F0A94E2F7A82AB92A19
:102A50002F5F3F4F2F30310511F7F80131978081FB
:102A60000E945E0F54E0C51619F080EA8A95F1F7CE
:102A700088819981A816B90609F44BC0B982A88249
:102A800081E0D82AC3942296E5E0CE12A8CFDD20BB
:102A900009F441C081E08093B0020E94FF06909348
:102AA000AF028093AE028091AE029091AF020E947D
:102AB000F0060697A0F18091F6039091F7039093AA
:102AC0004B0480934A048091F8039091F90390930A
:102AD0004D0480934C048091FA039091FB039093F2
:102AE0004F0480934E048091FC039091FD039093DA
:102AF0005104809350048091FE039091FF039093C2
:102B00005304809352041092B00209C090E080E018
:102B10009DCF80E0B6CF8091B0028111C4CF8D2DC2
:102B2000DF91CF911F910F91FF90EF90DF90CF90A9
:102B3000BF90AF9008956BEE7EEF90E080E00E9432
:102B4000172D60E082E090E00E94F92C60E083E0C5
:102B500090E00E94F92C1092F2031092F30310926D
:102B6000F4031092F50360E084E090E00E94F92CF9
:102B700060E081E290E00E94F92C60E085E090E066
:102B80000E94F92C60E086E090E00E94F92C6FEF43
:102B900087E090E00E94F92C40E050E0BA0188E024
:102BA00090E00E940B2D60E08DE090E00E94F92CF7
:102BB00040E050E0BA0188E190E00E940B2D60E017
:102BC00087E190E00E94F92C40E050E0BA018CE1EE
:102BD00090E00E940B2D60E080E290E00E94F92CD2
:102BE00040E050E0BA0188E190E00E940B2D40E007
:102BF00050E0BA018FE090E00E940B2D40E050E0E1
:102C0000BA0183E190E00C940B2D1092F0038091B7
:102C10001001E0E9F2E0882359F08091000487FF79
:102C200007C08EE1DF011D928A95E9F70C94430DF0
:102C300086E0F8CF1F93CF93DF93CDB7DEB7AA9787
:102C40000FB6F894DEBF0FBECDBF8FE794E02091A2
:102C5000F100DC012D93CD01B4E087389B07B9F773
:102C600080918004833009F471C0B8F4813009F494
:102C700048C0823009F4B2C08091E80083FF3AC1B5
:102C800080917F04909180049A3008F033C1E92F3D
:102C9000F0E0E057F24D0C94592C8A3009F48DC0C5
:102CA0008B3009F470C0893039F780917F0481320C
:102CB00019F78091830490918404009711F0029792
:102CC000D9F68091E800877F8093E8008091E80042
:102CD00082FF37C09091F3008091F200029729F4AF
:102CE0008091F1008B7F813021F48091F1008093FD
:102CF0005A048091E8008B778093E8000E94FA03E1
:102D0000BBCF80917F04813A09F0B6CF8091E80073
:102D1000877F8093E8008091830490918404892BBD
:102D200061F460E28BE594E070E00E94AC04809175
:102D3000E8008B778093E8009FCF60E090E080E030
:102D4000F3CF80917D048111C1CF96CF80917F0414
:102D5000813A09F091CF8091830490918404892B6A
:102D600009F08ACF8091E800877F8093E800809106
:102D7000E80080FFFCCF809110018093F1008091EA
:102D8000E8008E77B9CF80917F04813209F074CF4B
:102D90008091830490918404892B09F06DCF8091F8
:102DA000E800877F8093E8000E94FA038091810405
:102DB000809310010E9405165FCF80917F048132BD
:102DC00009F05ACF8091E800877F8093E8000E9445
:102DD000FA0380918204809359044ECF80917F043E
:102DE000813A09F049CF8091E800877F8093E8001D
:102DF0008091E80080FFFCCF80915904BECF8038DD
:102E000099F0823809F076C0809183048F70873002
:102E100008F070C08093E9008091EB0085FB882763
:102E200080F91092E90006C080917B0490917C04A7
:102E3000911182609091E800977F9093E8008093D1
:102E4000F1001092F1008091E8008E77B5C18823DF
:102E500009F4A2C1823009F04DC080918104811132
:102E6000A6C1809183048F702FEF280F263008F0C1
:102E700041C08093E9002091EB0020FF98C193307E
:102E800031F48091EB0080628093EB0090C19091CF
:102E9000EB0090619093EB0021E030E001C0220F45
:102EA0008A95EAF72093EA001092EA008091EB00FD
:102EB0008860EACF81111EC0109181041F77809134
:102EC000E3008078812B8093E3008091E800877F86
:102ED0008093E8000E94FA038091E80080FFFCCF15
:102EE0008091E30080688093E30082E0111183E029
:102EF00080937D048091E80083FF0AC08091E80000
:102F0000877F8093E8008091EB0080628093EB00E4
:102F1000AA960FB6F894DEBF0FBECDBFDF91CF915A
:102F20001F9108958058823028F7209181043091B4
:102F300082042C3DE3E03E07A1F583E08A838AE228
:102F400089834FB7F894DE01139620E03EE051E20A
:102F5000E32FF0E050935700E49120FF03C0E29587
:102F6000EF703F5FEF708E2F90E0EA30C0F0C796B1
:102F70008D939D932F5F243159F74FBF8091E800C7
:102F8000877F8093E8006AE270E0CE0101960E949C
:102F9000AC048091E8008B778093E800ABCFC096BB
:102FA000E7CF8091830490918404432F55274330C9
:102FB000510509F44AC078F54130510509F47AC049
:102FC0008BE590E0ECECF5E04230510509F092CF52
:102FD0002091E800277F2093E8002091850430911C
:102FE00086048217930708F49C0140E021153105FF
:102FF00009F065C0411163C08091E80082FDC9CF2E
:1030000080917D04882329F2853019F28091E800AF
:1030100083FFF2CFBECF4132510509F43CC04232AA
:10302000510509F067CF8330910508F063CFFC01AB
:10303000EE0FFF1FE859FE4F0190F081E02D8B59F4
:103040009E4FDC018C9190E01AC03327213031056E
:10305000D1F02115310561F02230310509F04ACF58
:10306000E9E3F6E0E4918E2F90E0E9E3F6E007C0B3
:10307000E9E6F6E0E4918E2F90E0E9E6F6E00097CD
:1030800009F438CFA5CFEDE4F6E0E4918E2F90E07F
:10309000EDE4F6E0F4CF8330910508F02BCF880FF4
:1030A000991FFC01E259FE4F0190F081E02D89E06B
:1030B00090E08ECF82E190E0E7E2F6E089CF809168
:1030C0007D04882309F465CF853009F462CF8091AF
:1030D000E80083FD5ECF8091E80082FD8DCF809176
:1030E000E80080FF83CF9091F3008091F2002115DA
:1030F000310519F08830910550F041E0089709F04A
:1031000040E08091E8008E778093E8006FCF449193
:103110004093F1003196215031090196E8CF803873
:1031200009F0E8CE8091E800877F8093E8008091E5
:103130007E048093F10087CE8111DCCE1091810452
:10314000123008F0D7CE8091E800877F8093E800A6
:1031500010937E040E94FA03112311F084E005C04D
:103160008091E30087FDFACF81E080937D0442E007
:1031700061EC81E00E94190442E261EC84E00E946B
:10318000190442E261EC82E00E94190442E260EC20
:1031900083E00E941904AECE80918104813009F051
:1031A000A9CE81E0933009F080E080937C041092F6
:1031B000E9008091E800877F8093E8000E94FA038D
:1031C00099CE45E050E06CE170E087EB94E00C9420
:1031D000E92C9091B704937089F0811107C0946035
:1031E0009093B704109214010C94E118853210F0FA
:1031F0009069F6CF880F880F982BF2CF08958091B1
:10320000B70486958695815009F484E20C94E918F8
:103210008091B704869586958F5F853208F081E0AE
:103220000C94E9189091B704937059F08093B80406
:103230006093B9044B3A08F04AEA4093BA040C94FC
:10324000E1180895E7EBF4E0438120E1421B08F424
:1032500040E08181628190E00C941219E7EBF4E088
:10326000438120E1420F08F44FEF8181628190E0B9
:103270000C941219E7EBF4E0628120E1621B08F480
:1032800060E08181438190E00C941219E7EBF4E057
:10329000628120E1620F08F46FEF8181438190E049
:1032A0000C941219E7EBF4E081814381628188502C
:1032B000990B0C941219E7EBF4E0818190E04381C3
:1032C000628108960C9412193F924F925F926F920E
:1032D0007F928F929F92AF92BF92CF92DF92EF92A6
:1032E000FF920F931F93CF93DF9300D000D00F92E4
:1032F000CDB7DEB78C01FC0183819481892B31F03D
:103300008081918189238F3F09F00EC60F900F9025
:103310000F900F900F90DF91CF911F910F91FF9021
:10332000EF90DF90CF90BF90AF909F908F907F9065
:103330006F905F904F903F9008950E948311F82EF8
:10334000682F89819A810E94DD0769817A818F2D9A
:103350000E94EC0F7C01F8019281992309F4D7C5F2
:10336000970122513F452031310508F0A3C58FEF69
:1033700093E00E94DB2CFEEEEF0E5EE7852E52E01E
:10338000952E882381F18091ED03877009F4BECFDB
:10339000F8018281882309F4B9CF82E00F900F9061
:1033A0000F900F900F90DF91CF911F910F91FF9091
:1033B000EF90DF90CF90BF90AF909F908F907F90D5
:1033C0006F905F904F903F900C94A90D811424E072
:1033D0009206C9F2C4010E94DB2C811101C0EA945B
:1033E0003FEF831A930AE110F1CF1C821B82442421
:1033F00043944AE0342E74018FEFE81AF80AC401AE
:103400000E94DB2C89831A82882309F4BCCF9FEFAA
:10341000980F933000F58A83498292E0890E911CBF
:10342000C7010E94DB2C8B83882309F4ACCFFE01FB
:1034300031967F01F70120812223E9F2213009F042
:1034400049C091818281913041F4F2E0EF0EF11C8C
:103450000E94341409C04701EACF923049F422E0B7
:10346000E20EF11C0E947F133FEFE31AF30AE2CF52
:10347000933031F432E0E30EF11C0E94650EF4CF7C
:10348000943021F08FEFE81AF80AEECF92E0E90EBF
:10349000F11C30E020E0B7016F5F7F4FF701418101
:1034A0008053990B8A30910550F021503109E0F298
:1034B0008FE99FE00197F1F700C00000F6CF329E40
:1034C000F001339EF00D11249C012E0F3F1F842F1D
:1034D0007B01E1CFE22FF0E0E45BFA4F5490822FC2
:1034E00086958695869590E0FC01E45CFA4F6490A1
:1034F0002770712C022E02C0759467940A94E2F72B
:10350000E1E06E227724FC01E45DFA4FA490B12C37
:10351000022E02C0B594A7940A94E2F7F1E0AF221C
:10352000BB24FC01E45EFA4FC490D12C02C0D594B8
:10353000C7942A95E2F721E0C222DD2461147104C8
:1035400019F081EE0E947F13A114B10419F086EEE8
:103550000E947F13852D0E943414AB2819F086EE4B
:103560000E94650E672819F081EE0E94650ECD2835
:1035700009F47ACF8CE26CCF81E00E94C10D0E94E9
:103580006A0D01CF81E00E94860DF9CF82E0F5CF70
:1035900085EFE8168CE5F80609F46AC008F464C003
:1035A00027E245EE66EEF6EFEF16FCE5FF0609F4BE
:1035B000AAC4992309F4C9C41092B60422E0E21601
:1035C0002CE5F20608F44DC136E1E3163CE5F306BE
:1035D00038F097012A5F3C452930310508F041C198
:1035E0000E94B80F909301048093000480E1E816D4
:1035F0008CE5F80609F404C108F083C0E8E0EE1693
:10360000ECE5FE0609F4EEC008F04FC024E0E21637
:103610002CE5F20609F4DEC090F582E0E8168CE5B0
:10362000F80609F4D1C080910004826093E0E916A5
:103630009CE5F90609F4CBC060910004F090010408
:1036400084E090E00E94F92C6F2D81E290E00E94CE
:10365000F92C0E94051697CE27E245EE65EE53C47D
:1036600026E241EE60EE4FC427E245EE64EE4BC425
:1036700026E241EE62EE47C428E241E0EFCF8091BE
:1036800000048061E6E0EE16ECE5FE0609F49FC05A
:10369000809100048860F7E0EF16FCE5FF0608F46F
:1036A00096C080910004806292C0809100048D7F5A
:1036B0002CE0E2162CE5F20609F489C060F48AE0F9
:1036C000E8168CE5F80609F497C008F48FC08091DD
:1036D00000048E7F7CC080910004877FEEE0EE16B0
:1036E000ECE5FE0609F473C0809100048B7FFFE0D7
:1036F000EF16FCE5FF0608F46AC0809100048F7E97
:1037000066C02BEFE2162CE5F20609F467C068F5F7
:1037100083E1E8168CE5F80609F47AC090F4E1E15B
:10372000EE16ECE5FE0609F46FC0F2E1EF16FCE5DB
:10373000FF0609F081CF0E940516809100048F7763
:1037400046C025E1E2162CE5F20609F469C008F44A
:103750007DC08AEFE8168CE5F80609F06DCF809100
:10376000010481608093010467CF9FEFE9169CE517
:10377000F90609F451C0A0F4809101048D7FFDEF9A
:10378000EF16FCE5FF0671F3809101048E7F2EEFAA
:10379000E2162CE5F20630F3809101048360E2CF5B
:1037A00031E0E3163DE5F30609F459C008F444C0DE
:1037B00060E092E0E9169DE5F90609F03DCF8EE064
:1037C00090E00E94F92C38CF8091000481608093B2
:1037D000000432CF809100048460F9CF809101040D
:1037E0008260C0CF809100048064F1CF0E940516F2
:1037F000809100048068EBCF809100048C60E7CF5B
:10380000809100048F7DE3CF809100048F7BDFCF18
:1038100080910004837FDBCF809101048C7FA2CF55
:103820008091000482FB992790F921E0922790FB78
:1038300082F990FB83F9CBCF80910104982F90956A
:1038400091708E7F892B90FB81F98CCF0E94051699
:1038500090910004892F97FB87F98058B8CF61E0D9
:10386000AECF8091F003E6E1EE16ECE5FE0609F03E
:103870007AC38A7A91E009F490E0909381038111F0
:1038800006C089E20E9481070E9411077CCD85E372
:10389000F9CF85E365C38091B70491E089278093D0
:1038A000B704109214010E94E1186DCD4FEF58E15A
:1038B00068E079E10E94600866CD48E059E16FEF69
:1038C00078E1F8CF42E559E16BE579E1F3CF4BE5DB
:1038D00059E162E579E1EECF4AE359E166E479E145
:1038E000E9CF46E459E16AE379E1E4CF42E259E104
:1038F0006EE279E1DFCF4EE259E162E279E1DACFBF
:1039000049E352E26FE272E2D5CF4FE252E269E35D
:1039100072E2D0CF81E00E94E91835CD85E0FBCF7F
:103920008DE0F9CF82E1F7CFE114FCE5FF0609F461
:1039300047C02EEDE2162CE5F20609F44EC0F80160
:10394000E080F180992309F44BC0C7010E948311E4
:10395000D82E682FC7010E94DD07B7018D2D0E9468
:10396000F90F7C01882EF801D280A580A2943FE057
:10397000A3228091ED038770A1F0CD2CDD2091F082
:103980008F2D807F803421F080E28E0D883048F0CA
:1039900082E00E94A90D8091ED038770CC24C3942E
:1039A0008111C12C3F2C32942FE03222FBE0F31521
:1039B00008F452C0E32DF0E0E656F24D0C94592C79
:1039C0000E9405163FEF84E39CE031508040904018
:1039D000E1F700C000000E945B130E949B15D3CC4E
:1039E000C7010E94B507D82EB8CF2F2D2F70A22E59
:1039F0008F2D807F19F0A29490EFA922DD20C9F0CD
:103A0000AA2069F080E28E0D883010F081100BC082
:103A10008091F003A82AA092F0030E9411078E2D36
:103A20000E947F1319C08091EF03A82AA092EF0390
:103A3000F4CF8E2D0E94650EAA2071F0A09480E232
:103A40008E0D883010F081103DC08091F003A822C7
:103A5000A092F0030E941107232D2850330B24302D
:103A6000310510F40E945408CC2009F44FCC809109
:103A7000ED0380FD4BCCF8011282859585958595E7
:103A80000E94C10DC8010E9464198091ED038595C3
:103A9000859585950F900F900F900F900F90DF9167
:103AA000CF911F910F91FF90EF90DF90CF90BF903B
:103AB000AF909F908F907F906F905F904F903F90CE
:103AC0000C94860D8091EF03A822A092EF03C2CF41
:103AD0003F2D3F70932E8F2D807F803219F092946E
:103AE00080EF9822882071F081E0881661F1DD2056
:103AF000B9F1AA2071F1F801858180FF90CF8F7014
:103B0000858327C0DD2091F09091F103892D892BC9
:103B1000A11003C00E941E089FCFE1E0AE12FACFB1
:103B2000981709F499CF8093F10396CFA11006C09E
:103B30000E940B07892D0E9413088ECFF1E0AF166B
:103B400009F48ACFF5CFDD2031F025E02A1508F4FD
:103B500083CF892DDFCF34E03A1508F47DCFEACF4B
:103B6000AA2041F3F9E38F1209C02FEF37EE83E06B
:103B7000215030408040E1F700C000008E2D0E94AF
:103B8000650E6ACF8F2D86958695837061F08130A2
:103B900009F062CFC7019370D11002C090E080E0BD
:103BA0000E94280859CFC7019370D11002C090E03D
:103BB00080E00E943E0850CF8E2DDD2029F00E942B
:103BC000040F0E941C0D48CF0E94EC0DFACF8F2DE0
:103BD000837009F066C0D1103FCF8E2D82958695F7
:103BE0008770880F880F6E2D6F70462E512C712CA8
:103BF000612C082E04C0440C551C661C771C0A94CA
:103C0000D2F740E050E0BA01E4FE0FC04FE050E0D0
:103C100060E070E004C0440F551F661F771F8A954F
:103C2000D2F740955095609570958F2D8695869525
:103C30008370823019F1D8F48090F2039090F303EE
:103C4000A090F403B090F503813069F04429552920
:103C500066297729CB01BA01682179218A219B2124
:103C60000E94E20DF9CE482859286A287B28CB010A
:103C7000BA016429752986299729F2CF4429552943
:103C8000662977294090F2035090F3036090F40383
:103C90007090F503CB01BA0164257525862597251B
:103CA000DFCF8695DD2011F08F2D8170882309F4F8
:103CB000D3CE8E2D829586958770880F880F6E2DB6
:103CC0006F70462E512C712C612C082E04C0440CB0
:103CD000551C661C771C0A94D2F740E050E0BA01EC
:103CE000E4FE0FC04FE050E060E070E004C0440F1D
:103CF000551F661F771F8A95D2F74095509560959E
:103D000070958F2D869586958370823019F1D8F441
:103D10008090BC049090BD04A090BE04B090BF04FD
:103D2000813069F04429552966297729CB01BA01E8
:103D3000682179218A219B210E94600D8DCE48281F
:103D400059286A287B28CB01BA016429752986295C
:103D50009729F2CF44295529662977294090BC0438
:103D60005090BD046090BE047090BF04CB01BA01B6
:103D70006425752586259725DFCF9F2D9F70F92E09
:103D8000DD2029F0892F0E94C10D8E2DC3CE8E2DEE
:103D90000E9413088F2D0E94860D5ECE8E2DE2EFBD
:103DA0008E1609F453C0E81578F0F0EF8F1629F15C
:103DB00021EF821609F442C0DD2009F46BC0A11086
:103DC0002ECE8F2D8F713FC033EF831609F443C081
:103DD00094EF8912F1CFDD2009F451C02F2D2F71FE
:103DE000F22E822F0E94C10D38E0F39EC0011124F3
:103DF00083608093ED038F2D26C0DD20D1F0E4E0B9
:103E0000EA1508F429CE2F2D2F7161E070E080E0D3
:103E100090E004C0660F771F881F991F2A95D2F77C
:103E20004090BC045090BD046090BE047090BF04EC
:103E30009FCFF5E0FA1508F40FCEE5CF8F2D8F71E7
:103E4000DD2009F4A8CF0E94C10D06CE8F2D8F7101
:103E5000DD20C9F3A0CF60E070E0CB01DD2009F4E4
:103E60006BCF2F2D2F7161E070E080E090E004C0F7
:103E7000660F771F881F991F2A95D2F75DCF81E0C3
:103E80000E94A90D81E08A1508F0E6CD82E00E942B
:103E9000A90DE2CDAA2059F0893309F06FCE9FEF2A
:103EA000E7EEF3E09150E040F040E1F765CE8F2D72
:103EB0008F7171CFF0E1EF16FFE5FF0609F45CCBDF
:103EC00021E1E2162FE5F20609F460CB83EFE81654
:103ED0008CE5F80609F4C4CB08F05ACBF8EDEF16E0
:103EE000FCE5FF0609F4B8CB29EDE2162CE5F20655
:103EF00009F4C2CB37EDE3163CE5F30609F059CBE4
:103F000026E241EE61EEC8010E9451143CCA30E144
:103F1000E3163FE5F30609F435CB81E1E8168FE5BA
:103F2000F806A1F682E02FCB85E0DE011196019024
:103F30000D928A95E1F7F801228189819A812111F8
:103F4000FCC90E94B507F82E00CAF6E1EF16FCE5A1
:103F5000FF0609F0F4CC8091810381119ACC89E2AB
:103F60000E94560791CC8272F701E25CFC45E43175
:103F7000F10508F0D9CCEA55F24D0C94592C1F9359
:103F8000CF93DF9380918803807FA9F4809185038C
:103F9000882389F08091BA03D091890360918303CB
:103FA00070918403A0918603B0918703C62FC72325
:103FB00016E0D81304C0DF91CF911F91089590E0CF
:103FC000109711F0CF3F19F401968770F2CF189F28
:103FD0009001199F300D1124F901E657FC4F4181E2
:103FE0004713F2CF40814613EFCF42814111ECCF0E
:103FF000438154814A1B5B0B483C510528F7809153
:1040000088038F70806180938803F901E157FC4F2A
:1040100080818F708061808383E893E00E946419BF
:10402000DF91CF911F910C940908AF92BF92CF926C
:10403000DF92EF92FF920F931F93CF93DF93CDB751
:10404000DEB761970FB6F894DEBF0FBECDBF8C010F
:1040500085E0F801DE011D9601900D928A95E1F749
:10406000F80180819181E28023E8A22E23E0B22E24
:1040700060918603709187036115710509F43EC153
:104080003091830340918403232F24232F3F09F48D
:1040900035C1C380D480F0908503F601E61BF70B91
:1040A000FF2009F4FBC020918803522F507FE83C89
:1040B000F10508F0BBC0511178C0FE2C491321C096
:1040C00038131FC0E1101DC02F702061209388039A
:1040D000C5010E94641980918803F80185838F2DA2
:1040E00061960FB6F894DEBF0FBECDBFDF91CF91C2
:1040F0001F910F91FF90EF90DF90CF90BF90AF9006
:104100000895CD2829F0282F29232F3F09F014C125
:1041100020E0F22FF170DF2E20FF3DC02091BA0386
:104120004091890356E0241315C08D879E878D85A5
:104130009E850E94C511292F22952F702230F8F0FC
:10414000243020F59F70F9F0F8019581907FD9F423
:10415000D12C1FC030E0529FF001539FF00D11246D
:10416000E657FC4F6181961306C06081861303C039
:104170006281E61210C02F5F3F4F2770D4CF9F702F
:1041800011F0882329F3805E883010F3C8010E9463
:104190006419FD2CA4CFEE2009F4A1CF80918803EF
:1041A000816080938803F12C9ACF491312C0381391
:1041B00010C0E1100EC0F8012583C8010E946419E7
:1041C00086E0F801A3E8B3E001900D928A95E1F74B
:1041D00086CF8D879E878D859E850E94CF118823EF
:1041E00009F1EE20F9F080918803803270F020917F
:1041F00083033091840338872F831986DB86CA8630
:104200008C87CE0107960E94641986E0F801A3E826
:10421000B3E001900D928A95E1F70E94BF1FFF2441
:10422000F3945DCFC8010E946419F9CF51110AC0FF
:1042300083E893E00E94641986E0F50111928A9563
:10424000E9F7B1CF49130FC038130DC0E1100BC00F
:10425000F8012583C8010E94641986E0F5011192D6
:104260008A95E9F73CCF8D879E878D859E850E9434
:10427000CF118823B9F2EE20A9F280918803803211
:1042800020F220918303309184033A8329831B8297
:10429000DD82CC828E83CE010196B5CFE83CF1055C
:1042A000E0F6FE2CEE2009F4BDCF491316C03813FA
:1042B00014C08091880380FD83CF982F907F09F4EC
:1042C0007FCFF8018583903F09F477CF982F907FB7
:1042D000905F8F70892B858370CF8D879E878D85AA
:1042E0009E850E94CF11811190CF809188038160BB
:1042F00080938803C8010E946419F1CEEE2009F46E
:1043000091CF8D879E878D859E850E94CF11F82E37
:10431000882309F487CF86E0F801A3E8B3E0019091
:104320000D928A95E1F780918303909184030E9416
:10433000C5110E94BF1FD3CE21E02E25EACE1F93C8
:10434000CF93DF93CDB7DEB767970FB6F894DEBF94
:104350000FBECDBF342F4B8B252F5C8B6D8B7E8B8F
:104360008F8B8E899F8961111092EF031A8A198AA7
:104370003D872E876F87998B888B86E0FE013D965F
:10438000DE01179601900D928A95E1F7CE0107960E
:104390000E941520882389F016E08091BA0390913D
:1043A0008903891349C067960FB6F894DEBF0FBE24
:1043B000CDBFDF91CF911F91089586E0FE01379622
:1043C000DE01119601900D928A95E1F78A859B8511
:1043D000892B11F38F81988589238F3FE9F22091F2
:1043E000890330E0C9010196877099274091BA038B
:1043F0004817190671F40E9405161092890310924D
:10440000BA0386E0E3E8F3E0DF011D928A95E9F75D
:10441000C3CF96E0929FD001939FB00D1124A65771
:10442000BC4FFE01319601900D929A95E1F7809371
:1044300089030E940908B0CF819FC00111248657CB
:104440009C4F0E941520882309F4ADCF8091BA03B8
:1044500090E00196877099278093BA039ECFE7EB8F
:10446000F4E0248130E1230F08F42FEF24830C942F
:10447000E118E7EBF4E0248130E1231B08F420E0AD
:1044800024830C94E118E7EBF4E085E380838091CA
:10449000150190911601A091170181839283A38346
:1044A0008FE784830C94E1181F920F920FB60F923E
:1044B00011242F933F934F935F936F937F938F9329
:1044C0009F93AF93BF93CF93DF93EF93FF93D091DD
:1044D000E900DF708091EC00C82FC17080FDC0E85A
:1044E0001092E9008091F000877F8093F00078942B
:1044F0000E941A161092E9008091F0008860809363
:10450000F000CD2BCF70C093E900FF91EF91DF91C8
:10451000CF91BF91AF919F918F917F916F915F915B
:104520004F913F912F910F900FBE0F901F901895B4
:104530001F920F920FB60F9211242F933F934F9318
:104540005F936F937F938F939F93AF93BF93EF93FB
:10455000FF938091E10082FF09C08091E20082FF19
:1045600005C08091E1008B7F8093E1008091DA00AB
:1045700080FF24C08091D80080FF20C08091DA00A5
:104580008E7F8093DA008091D90080FF9BC080E10C
:1045900089BD82E189BD09B400FEFDCF81E0809331
:1045A0007D0480915804811109C00E9480030E94FB
:1045B0004B048091E20084608093E2008091E100EE
:1045C00080FF17C08091E20080FF13C08091E2005D
:1045D0008E7F8093E2008091E20080618093E20010
:1045E0008091D80080628093D80019BC85E08093C8
:1045F0007D048091E10084FF29C08091E20084FF66
:1046000025C080E189BD82E189BD89B5982F91706F
:1046100080FFFBCF8091D8008F7D8093D800809160
:10462000E1008F7E8093E1008091E2008F7E809395
:10463000E2008091E20081608093E20080917E043C
:10464000882309F445C084E080937D048091E100D3
:1046500083FF27C08091E20083FF23C08091E100A7
:10466000877F8093E10082E080937D0410927E0436
:104670008091E1008E7F8093E1008091E2008E7F47
:104680008093E2008091E20080618093E20042E04A
:1046900060E080E00E9419048091F00088608093BF
:1046A000F000FF91EF91BF91AF919F918F917F911A
:1046B0006F915F914F913F912F910F900FBE0F908F
:1046C0001F90189519BC10927D041092580476CF53
:1046D0008091E30087FD93E090937D04B7CFCDB741
:1046E000DEB7AB970FB6F894DEBF0FBECDBF84B771
:1046F000877F84BF0FB6F894A89580916000886189
:1047000080936000109260000FBE80E890E00FB6CA
:10471000F89480936100909361000FBE85B7806824
:1047200085BF85B7806885BF8BEE96E090938D023C
:1047300080938C020E9480030E944B048091E200CF
:1047400084608093E200789480917D048823A1F0B6
:104750001091E9001F709091EC00892F817090FDFD
:1047600080E8182B1092E9008091E80083FD0E94F8
:104770001A161F701093E90082E084BD93E095BD86
:104780009AEF97BD80936E0087E30E945E0F80E9E9
:104790000E945E0F81E90E945E0F82E90E945E0F17
:1047A00083E90E945E0F06E511E035E6E32E31E075
:1047B000F32ED8018D918D010E945E0FE016F10657
:1047C000C1F71092F7031092F60310924B04109267
:1047D0004A041092F9031092F80310924D041092BB
:1047E0004C041092FB031092FA0310924F041092A3
:1047F0004E041092FD031092FC031092510410928B
:1048000050041092FF031092FE0310925304109272
:1048100052040E94DC14BFEFE6E7F1E0B150E04043
:10482000F040E1F700C000000E94DC1480914A04CF
:1048300080FF17C06FEF82E290E00E94F92C6FEFCB
:1048400083E290E00E94F92C6FEF84E290E00E94F6
:10485000F92C6FEF7FEF90E080E00E94172D0E940F
:104860005B1390E080E00E94E32C8B3E9E4F11F0A2
:104870000E949B15109287048FEF9FEF9093A104E5
:104880008093A0049093A3048093A2049093A50422
:104890008093A4049093A7048093A6049093A90402
:1048A0008093A8049093AB048093AA049093AD04E2
:1048B0008093AC049093AF048093AE0410920504EF
:1048C00090931F0480931E049093210480932004EE
:1048D00090932304809322049093250480932404CE
:1048E00090932704809326049093290480932804AE
:1048F00090932B0480932A0490932D0480932C048E
:1049000090E080E00E94E32C8B3E9E4F21F00E94BD
:104910009B150E94432245E050E06CE170E087EB7C
:1049200094E00E94CB2C8091B7048C7F11F40E94FC
:10493000432282E290E00E94DB2C823209F01AC707
:1049400083E290E00E94DB2C823109F013C784E2FD
:1049500090E00E94DB2C813309F00CC790E080E0EE
:104960000E94E32C8B3E9E4F11F00E949B1582E02B
:1049700090E00E94DB2C80933F040E94B80F90933C
:1049800001048093000483E090E00E94DB2C682FF8
:1049900070E090E080E00E94E20D86E091E090936C
:1049A00003048093020490E4C92E28E0222E312CC7
:1049B00080917D0400E112E1853009F4D9C00E94A4
:1049C000DC14882359F08FB7F89440915404509127
:1049D000550460915604709157048FBFAAE4B4E067
:1049E000E0E4F4E010E000E0602FED90FD90219114
:1049F00031912E153F0509F439C22E253F25D12CC2
:104A0000AA24A394B12CA9014A215B21452B09F4C6
:104A100027C2D9A26AA3EA20FB2081E0E114F104B5
:104A200009F480E08BA30E94FF068160782F9DA38C
:104A30008CA349A15AA16BA18DA10E949F21F801CD
:104A4000EE0FFF1FE05CFB4F80819181A826B92605
:104A5000B182A082EF2871F08FE0809FF001819FEA
:104A6000F00D1124EC58FE4FED0DF11D80818F3FAC
:104A700009F088C0D12CB09005040D2D10E0C801BC
:104A80008B0D911D099754F17101E01AF10AB801DB
:104A90006A5F7B4FA70186E094E00E94C22CB801B8
:104AA000625F7B4FA7018EE094E00E94C22CA701B9
:104AB000440F551FB801660F771F625E7B4F8EE172
:104AC00094E00E94C22CB8016A5E7B4FA70186E188
:104AD00094E00E94C22CBA94B0920504809105041F
:104AE00090E0EBA5AE2FB0E09D01220F331F2154C3
:104AF0003E4FAA0FBB1FBD0160547E4F5CC080912A
:104B00007D04843019F11092040488E190E00FB61E
:104B1000F894A895809360000FBEC092600083B7A0
:104B2000817F846083BF83B7816083BF78948895D9
:104B300083B78E7F83BF0FB6F894A89580916000ED
:104B4000886180936000109260000FBE80917C04A9
:104B5000882371F00E94DC14EAE4F4E081919191E1
:104B6000892B09F0F1C5A4E5B4E0AE17BF07B1F792
:104B700080917D04853009F4C2CF0E9405160E9401
:104B800054081DCF8BA7DD24D39475CF90E0FC0192
:104B9000EB5FFB4FD9015C915183DB015C91518745
:104BA000BBA5B18B880F991FFC01EB5FFB4F128EE9
:104BB000118E91E0842F41E0480F9D1538F38093CA
:104BC000050480912E0490912F04A0913004B0919F
:104BD00031042FB7F8948090540490905504A0901D
:104BE0005604B09057042FBF85017401E81AF90AE2
:104BF0000A0B1B0B2FB7F8944090540450905504A7
:104C000060905604709057042FBF40922E0450922B
:104C10002F04609230047092310460910504E5E045
:104C2000F4E0462F50E00197AF4FBF4F8819990924
:104C3000AA09BB09651331C1409305048091B704EB
:104C4000582F5370F52E19F0F82EF694F694909193
:104C50001401913009F44BC1992309F431C1923008
:104C600009F4D1C3933009F4D6C386E0E8E3F4E055
:104C7000DE01119601900D928A95E1F7F0903A04C9
:104C8000E0903B0410913C0400913D0410923A04E2
:104C900010923B0410923C0410923D048F2D8E29FB
:104CA00009F448C080913604909137040E94F006C0
:104CB0009C0190913504992309F483C52333310570
:104CC000C8F19F3F19F09F5F90933504FF2059F082
:104CD0000E94E40E9FEF1F140CF491E0899F802D39
:104CE000112480933A04EE2059F00E94E40E9FEFC5
:104CF0001E140CF491E0899F802D112480933B04B5
:104D000030913A043323B1F020913B04222391F0F7
:104D100055EB3503C0011124992309F49BC39093EB
:104D20003A0445EB240390011124332309F496C37C
:104D300030933B04812F802B09F448C080913304C9
:104D4000909134040E94F0069C01909132049923C2
:104D500009F432C525363105C8F19F3F19F09F5F30
:104D600090933204112359F00E94C20E9FEF111646
:104D70000CF491E0899F802D112480933C04002342
:104D800059F00E94C20E9FEF10160CF491E0899F1B
:104D9000802D112480933D0430913C043323B1F0E5
:104DA00020913D04222391F055EB3503C0011124DD
:104DB000992309F457C390933C0445EB24039001D5
:104DC0001124332309F452C330933D0480913A04F3
:104DD00090913B04892B90913C04892B90913D0448
:104DE000892B11F00E941C0D86E0FE013196A8E38C
:104DF000B4E001900D928A95E1F70E9454089091D9
:104E00003E04891721F00E94540880933E0480914B
:104E10007D04843009F0CCCD83E08093E90080915B
:104E2000E80082FFC5CD8091E80090E085FF06C0D4
:104E30000E949F03882309F41DC391E08091E8003C
:104E40008B778093E800992309F4B2CDE981E15092
:104E5000E33108F0ACC3F0E0E654F24D0C94592C69
:104E6000D394AA0CBB1C4FE0D412CDCD0F5F1F4FC3
:104E70000530110509F0B8CD8FEF8EA38FA318A6CA
:104E80000E94FF068160782F9AA789A74EA15FA193
:104E900068A58AA50E949F2194CE218D328D49015B
:104EA000B12CA12C88159905AA05BB0520F4415009
:104EB0005F5F3296BFCE2E0D3F1D328F218FF8CF10
:104EC000109211014092B0045092B1046092B20469
:104ED0007092B30489E2E5E0F4E0A7E8B4E0019061
:104EE0000D928A95E1F781E080931401BECE9091F6
:104EF000050111E0F91209C083702091040130E02E
:104F000011E08217130609F410E0117010931301D9
:104F100084E28F1540F0EF2DF0E0E353F24D0C9456
:104F2000592C111102C010E069C040E060E080E03F
:104F30000E947B08F8CF009111018EE0089F002DA0
:104F400011244EE0E42EE00EDE2C94E49E1510F4C5
:104F500034E4D32E6091B8047091B9048091BA04FE
:104F60000E94CC09B62EA72E782E10E00D1530F039
:104F700011E0A3E4AE1508F041C0D5CFF801E95B1C
:104F8000FD4F808190911201892331F0272D4B2D07
:104F90006A2DC8010E947D080F5F1F4FE7CF009167
:104FA00011018EE0089F002D11242EE0E22EE00E6C
:104FB000DE2CB4E4BE1510F494E4D92E5090B9045C
:104FC0006090BA041091B804612F752D862D0E944F
:104FD000CC09B62EA72E782E6091BB04610F752DDB
:104FE000862D0E94CC09662E572E482E10E00D15F6
:104FF000B8F011E0E3E4EE1508F495CF80911101CB
:105000008F5F80931101111130CE82E080931401E3
:1050100080911301811129CEF11027CE83E064CF56
:10502000F801E95BFD4F908180911201892359F0CD
:10503000242D462D652D90FD03C0272D4B2D6A2D67
:10504000C8010E947D080F5F1F4FD1CF0091110151
:105050008EE0089F002D11248EE0E82EE00EBE2C7D
:10506000F4E4FE1510F414E4B12EA090B90470908D
:10507000BA042091BB043C2D329F312D1124D32E34
:1050800010E00B1530F011E043E44E1508F0B6CFF8
:105090004ACFF801E95BFD4F80819091120189238D
:1050A000B9F0F801EE0FFF1FE054FE4F80818295AA
:1050B0008F706091B8048D9D600D11247A2D872D1D
:1050C0000E94CC09462F282F672FC8010E947D0817
:1050D0000F5F1F4FD6CF009111018EE0089F002D6A
:1050E0001124AEE0EA2EE00EBE2C54E45E1510F45E
:1050F000F4E4BF2EA090B9047090BA042091BB04D0
:105100003C2D329F312D1124D32E10E00B1508F0C9
:10511000BACFF801E95BFD4F80819091120189239C
:10512000D9F0F801EE0FFF1FE154FE4F6081D69ECB
:10513000B0011124E5E075956795EA95E1F7809156
:10514000B804680F7A2D872D0E94CC09462F282F8E
:10515000672FC8010E947D080F5F1F4FD7CF0091B6
:1051600011018EE0089F002D11246EE0E62EE00E66
:10517000DE2C54E45E1510F454E4D52EB090B8043F
:105180001091B904A090BA046091BB04669566952D
:1051900066958091B0049091B1040E94C2090E946A
:1051A0004B09805887FD8195880F282F3A2D239F22
:1051B000212D1124822F6B2D712F0E94CC09B62E28
:1051C000A72E782E10E00D1508F05DCFF801E95BF1
:1051D000FD4F808190911201892331F0272D4B2DB5
:1051E0006A2DC8010E947D080F5F1F4FECCF82EC33
:1051F00096E00E94390B182F01CF88E996E0F9CF8D
:105200008DE299E00E94DD0AF6CF8EE099E0FACFB8
:1052100083EF98E00E94600AEECF87ED98E0FACF26
:1052200086E996E0E6CF8DE896E0E3CF84E896E065
:10523000E0CF8BE696E0DDCF8DE596E0EBCF8AE917
:1052400099E0E0CF86EC98E0DDCF82EB98E0E2CF0A
:1052500080E396E00E94830BCECF82E096E0FACF07
:105260008BEC95E0F7CF11111EC06091BB0420E1DB
:10527000620F08F46FEF8091B0049091B1040E9426
:10528000C2096AE070E00E94312C892B09F04BCEF4
:105290000E94B22C64E470E00E94452C60911201DF
:1052A0000E947A12ABCE009111018EE0089F002D72
:1052B00011244EE0E42EE00E8E2D54E45E1508F429
:1052C00084E410E0A82EB12C0A151B0534F011E07F
:1052D00083E48E1508F092CE26CE60911201C801AB
:1052E0000E947A120F5F1F4FEFCF11111EC0609105
:1052F000BB0420E1620F08F46FEF8091B00490913D
:10530000B1040E94C20965E070E00E94312C892B33
:1053100009F009CE0E94B22C64E470E00E94452C92
:10532000609112010E94581269CE009111018EE025
:10533000089F002D11243EE0E32EE00E8E2D94E414
:105340009E1508F484E410E0A82EB12C0A151B0564
:105350000CF00ECE60911201C8010E9458120F5F2E
:105360001F4FF4CF84EC95E00E94E50B44CF8EEB09
:1053700095E0FACF8091870421E0382F321B08F4A2
:1053800030E0832F65EA75E00E94560C34CF65EA61
:1053900075E080E0F9CF8091870421E0482F421B1F
:1053A00008F440E0842F6AE675E0EECF6AE675E027
:1053B000F0CF8091870421E0582F521B08F450E071
:1053C000852F68E375E0E0CF68E375E0E2CF809178
:1053D000870421E0382F321B08F430E0832F60E28D
:1053E00075E0D2CF60E275E0D4CF8091870421E0F0
:1053F000482F421B08F440E0842F6AE075E0C4CFD8
:105400006AE075E0C6CFF0920501837080930401D5
:105410000E94B51403CE4091B0045091B104609144
:10542000B2047091B3042FB7F89480915404909112
:105430005504A0915604B09157042FBF841B950BBF
:10544000A60BB70B4097A105B10508F40ECC10923E
:1054500014010BCC81E080933A0463CC81E080930B
:105460003B0468CC81E080933C04A7CC81E080932E
:105470003D04ACCC00E210E0CE0101967C018091AD
:10548000E80085FD0AC08091E8008B778093E800F2
:105490000E949F03882399F3D0CC8091F100D7011B
:1054A0008D937D010150110951F7C7CC1A8289E013
:1054B0008B831AC08A81823009F475C18330D9F197
:1054C000813009F074C02FB7F89460915404709142
:1054D000550480915604909157042FBF0E945F2C71
:1054E0006B837C838D839E8380917D04843009F05F
:1054F0005FCA1091E9001F709091EC00892F8170B4
:1055000090FD80E8182B82E08093E9008091E8000C
:1055100080FF0DC050E040E060E270E0CE010196F7
:105520000E94D0038091E8008E778093E8001F707E
:105530001093E9003DCA80914A0490914B0498274A
:10554000892798279C838B8380914C0490914D04EC
:105550009827892798279E838D8380914E04909168
:105560004F0498278927982798878F838091500424
:10557000909151049827892798279A878987809145
:105580005204909153049827892798279C878B87EA
:10559000ABCF8A81823059F46B817C818D819E8171
:1055A0000E945F2C85E290E00E94F92C9DCF8FEF46
:1055B00089839ACF4C816B818A810E94C60F98277C
:1055C000892798279E838D838FCFED80FE80FE24D0
:1055D000EF24FE248A810B81BEE10B9F8001112400
:1055E000E6E98E9F000D111D11248C8190E0880F3B
:1055F000991F080F191F6F2DC80186960E94F92C5C
:105600006E2DC8018796D0CF0E94F3116DCF80E137
:105610008A836ACF81E08A8382E84ACF0A811B812C
:105620001027012710279E012F5F3F4F7901AC8083
:10563000A9014A0D511D5A01C80182589D4FEA1413
:10564000FB0409F451CF023851E0150758F40E94C9
:10565000DB2CD70114968C930F5F1F4FFFEFEF1ACF
:10566000FF0AEACFF7011482F7CF0A811B811027C6
:10567000012710279E012F5F3F4F5901EC80E00E5C
:10568000F12EF11CC80182589D4FE016F10609F475
:105690002BCF023831E0130728F4D50114966C9112
:1056A0000E94F92CBFEFAB1ABB0A0F5F1F4FEACF66
:1056B0000E94481219CF84E0ABCF0A811B811027CA
:1056C00001271027FE0131967F01AC809F012A0D32
:1056D000311D5901C8018696AE14BF0409F404CFE8
:1056E000083532E0130758F40E94DB2CD7011496DA
:1056F0008C930F5F1F4FFFEFEF1AFF0AEBCFF701FD
:105700001482F7CF0A811B811027012710279E01E1
:105710002F5F3F4F5901EC80E00EF12EF11CC801C4
:1057200086960E151F0509F4DFCE083532E0130703
:1057300028F4D50114966C910E94F92CBFEFAB1A96
:10574000BB0A0F5F1F4FEBCF09BD19BD09B400FEA7
:10575000FDCF8091D8008F7D8093D8008091E000AC
:1057600082608093E0008091E00081FDFCCF0E9488
:105770000516FEC960E085E290E00E94F92C0E94C7
:10578000F3110E94481262E282E290E00E94F92C3A
:1057900062E183E290E00E94F92C61E384E290E010
:1057A0000E94F92CDBC885E290E00E94DB2C1B8272
:1057B0001C821D828E8398CE2D32314008F0CFCAD4
:1057C00005CB2D32314008F07ECAB4CA78941F92BE
:1057D0001FB61F9211248F939F93AF93BF93809115
:1057E000540490915504A0915604B0915704019629
:1057F000A11DB11D8093540490935504A0935604A9
:10580000B0935704BF91AF919F918F911F901FBE8E
:105810001F9018951F921FB61F9211248F939F936C
:10582000AF93BF9380910404811113C080915404FD
:1058300090915504A0915604B09157044196A11D32
:10584000B11D8093540490935504A0935604B093D3
:105850005704BF91AF919F918F911F901FBE1F90D2
:105860001895AA1BBB1B51E107C0AA1FBB1FA61797
:10587000B70710F0A61BB70B881F991F5A95A9F7F9
:1058800080959095BC01CD01089597FB072E16F4E5
:10589000009407D077FD09D00E94312C07FC05D079
:1058A0003EF4909581959F4F0895709561957F4F37
:1058B0000895EE0FFF1F0590F491E02D09946927DC
:1058C0009627692778278727782708958F929F92B0
:1058D000AF92BF92CF92DF92EF92FF92CF93DF937E
:1058E000EC01688179818A819B816115710581054F
:1058F000910521F464E279ED8BE597E02DE133EF3A
:1059000041E050E00E941D2D49015A019B01AC016C
:10591000A7EAB1E40E943C2D6B017C01ACEEB4EF30
:10592000A50194010E944A2DDC01CB018C0D9D1D27
:10593000AE1DBF1DB7FF03C00197A109B048888302
:105940009983AA83BB839F77DF91CF91FF90EF90DC
:10595000DF90CF90BF90AF909F908F9008950E945E
:10596000662C089580E091E00E94662C0895B0E0D6
:10597000A0E08093000190930101A0930201B093F5
:1059800003010895FB01DC0102C001900D9241501A
:105990005040D8F70895DC01CB01FC01F999FECF06
:1059A00006C0F2BDE1BDF89A319600B40D924150A7
:1059B0005040B8F70895F999FECF92BD81BDF89A8D
:1059C000992780B50895A8E1B0E042E050E00C943A
:1059D000CD2CDC01A40FB51F4150504048F0CB0145
:1059E000840F951F2E910E94FA2C41505040D0F701
:1059F0000895262FF999FECF92BD81BDF89A01979F
:105A000000B4021639F01FBA20BD0FB6F894FA9A06
:105A1000F99A0FBE08950396272F0E94FA2C0E9430
:105A2000F92C252F0E94FA2C242F0C94FA2C019685
:105A3000272F0E94FA2C0C94F92C052E97FB1EF4AC
:105A400000940E94342D57FD07D00E944F2D07FC73
:105A500003D04EF40C94342D5095409530952195FB
:105A60003F4F4F4F5F4F089590958095709561958A
:105A70007F4F8F4F9F4F08950E94712DA59F900DCE
:105A8000B49F900DA49F800D911D11240895B7FF20
:105A90000C943C2D0E943C2D821B930B0895A1E297
:105AA0001A2EAA1BBB1BFD010DC0AA1FBB1FEE1F98
:105AB000FF1FA217B307E407F50720F0A21BB30BE3
:105AC000E40BF50B661F771F881F991F1A9469F75F
:105AD00060957095809590959B01AC01BD01CF01BB
